{
	"data": {
		"bytecode": {
			"linkReferences": {},
			"object": "608060405234801561001057600080fd5b5061045d806100206000396000f3fe608060405234801561001057600080fd5b50600436106100575760003560e01c8063273d1a3e1461005c578063730881831461008c57806380f7a018146100aa578063e500ba43146100da578063e581bdca1461010a575b600080fd5b610076600480360381019061007191906101de565b610128565b6040516100839190610269565b60405180910390f35b610094610132565b6040516100a19190610284565b60405180910390f35b6100c460048036038101906100bf919061020b565b610158565b6040516100d19190610284565b60405180910390f35b6100f460048036038101906100ef919061020b565b610173565b6040516101019190610284565b60405180910390f35b61011261018e565b60405161011f9190610284565b60405180910390f35b6000819050919050565b600080602d90506000600390506000818361014d919061029f565b905080935050505090565b60008082846101679190610326565b90508091505092915050565b600080828461018291906102f5565b90508091505092915050565b600080602d9050600060059050600081836101a9919061029f565b905080935050505090565b6000813590506101c3816103f9565b92915050565b6000813590506101d881610410565b92915050565b6000602082840312156101f4576101f36103f4565b5b6000610202848285016101b4565b91505092915050565b60008060408385031215610222576102216103f4565b5b6000610230858286016101c9565b9250506020610241858286016101c9565b9150509250929050565b61025481610380565b82525050565b6102638161038c565b82525050565b600060208201905061027e600083018461024b565b92915050565b6000602082019050610299600083018461025a565b92915050565b60006102aa8261038c565b91506102b58361038c565b9250827fffffffffffffffffffffffffffffffffffffffffffffffffffffffffffffffff038211156102ea576102e9610396565b5b828201905092915050565b60006103008261038c565b915061030b8361038c565b92508261031b5761031a6103c5565b5b828204905092915050565b60006103318261038c565b915061033c8361038c565b9250817fffffffffffffffffffffffffffffffffffffffffffffffffffffffffffffffff048311821515161561037557610374610396565b5b828202905092915050565b60008115159050919050565b6000819050919050565b7f4e487b7100000000000000000000000000000000000000000000000000000000600052601160045260246000fd5b7f4e487b7100000000000000000000000000000000000000000000000000000000600052601260045260246000fd5b600080fd5b61040281610380565b811461040d57600080fd5b50565b6104198161038c565b811461042457600080fd5b5056fea2646970667358221220a612636970f5af826cfc97d4ea1f7612ffb54132d63c8a4b1c0a33e8e1f1573764736f6c63430008070033",
			"opcodes": "PUSH1 0x80 PUSH1 0x40 MSTORE CALLVALUE DUP1 ISZERO PUSH2 0x10 JUMPI PUSH1 0x0 DUP1 REVERT JUMPDEST POP PUSH2 0x45D DUP1 PUSH2 0x20 PUSH1 0x0 CODECOPY PUSH1 0x0 RETURN INVALID PUSH1 0x80 PUSH1 0x40 MSTORE CALLVALUE DUP1 ISZERO PUSH2 0x10 JUMPI PUSH1 0x0 DUP1 REVERT JUMPDEST POP PUSH1 0x4 CALLDATASIZE LT PUSH2 0x57 JUMPI PUSH1 0x0 CALLDATALOAD PUSH1 0xE0 SHR DUP1 PUSH4 0x273D1A3E EQ PUSH2 0x5C JUMPI DUP1 PUSH4 0x73088183 EQ PUSH2 0x8C JUMPI DUP1 PUSH4 0x80F7A018 EQ PUSH2 0xAA JUMPI DUP1 PUSH4 0xE500BA43 EQ PUSH2 0xDA JUMPI DUP1 PUSH4 0xE581BDCA EQ PUSH2 0x10A JUMPI JUMPDEST PUSH1 0x0 DUP1 REVERT JUMPDEST PUSH2 0x76 PUSH1 0x4 DUP1 CALLDATASIZE SUB DUP2 ADD SWAP1 PUSH2 0x71 SWAP2 SWAP1 PUSH2 0x1DE JUMP JUMPDEST PUSH2 0x128 JUMP JUMPDEST PUSH1 0x40 MLOAD PUSH2 0x83 SWAP2 SWAP1 PUSH2 0x269 JUMP JUMPDEST PUSH1 0x40 MLOAD DUP1 SWAP2 SUB SWAP1 RETURN JUMPDEST PUSH2 0x94 PUSH2 0x132 JUMP JUMPDEST PUSH1 0x40 MLOAD PUSH2 0xA1 SWAP2 SWAP1 PUSH2 0x284 JUMP JUMPDEST PUSH1 0x40 MLOAD DUP1 SWAP2 SUB SWAP1 RETURN JUMPDEST PUSH2 0xC4 PUSH1 0x4 DUP1 CALLDATASIZE SUB DUP2 ADD SWAP1 PUSH2 0xBF SWAP2 SWAP1 PUSH2 0x20B JUMP JUMPDEST PUSH2 0x158 JUMP JUMPDEST PUSH1 0x40 MLOAD PUSH2 0xD1 SWAP2 SWAP1 PUSH2 0x284 JUMP JUMPDEST PUSH1 0x40 MLOAD DUP1 SWAP2 SUB SWAP1 RETURN JUMPDEST PUSH2 0xF4 PUSH1 0x4 DUP1 CALLDATASIZE SUB DUP2 ADD SWAP1 PUSH2 0xEF SWAP2 SWAP1 PUSH2 0x20B JUMP JUMPDEST PUSH2 0x173 JUMP JUMPDEST PUSH1 0x40 MLOAD PUSH2 0x101 SWAP2 SWAP1 PUSH2 0x284 JUMP JUMPDEST PUSH1 0x40 MLOAD DUP1 SWAP2 SUB SWAP1 RETURN JUMPDEST PUSH2 0x112 PUSH2 0x18E JUMP JUMPDEST PUSH1 0x40 MLOAD PUSH2 0x11F SWAP2 SWAP1 PUSH2 0x284 JUMP JUMPDEST PUSH1 0x40 MLOAD DUP1 SWAP2 SUB SWAP1 RETURN JUMPDEST PUSH1 0x0 DUP2 SWAP1 POP SWAP2 SWAP1 POP JUMP JUMPDEST PUSH1 0x0 DUP1 PUSH1 0x2D SWAP1 POP PUSH1 0x0 PUSH1 0x3 SWAP1 POP PUSH1 0x0 DUP2 DUP4 PUSH2 0x14D SWAP2 SWAP1 PUSH2 0x29F JUMP JUMPDEST SWAP1 POP DUP1 SWAP4 POP POP POP POP SWAP1 JUMP JUMPDEST PUSH1 0x0 DUP1 DUP3 DUP5 PUSH2 0x167 SWAP2 SWAP1 PUSH2 0x326 JUMP JUMPDEST SWAP1 POP DUP1 SWAP2 POP POP SWAP3 SWAP2 POP POP JUMP JUMPDEST PUSH1 0x0 DUP1 DUP3 DUP5 PUSH2 0x182 SWAP2 SWAP1 PUSH2 0x2F5 JUMP JUMPDEST SWAP1 POP DUP1 SWAP2 POP POP SWAP3 SWAP2 POP POP JUMP JUMPDEST PUSH1 0x0 DUP1 PUSH1 0x2D SWAP1 POP PUSH1 0x0 PUSH1 0x5 SWAP1 POP PUSH1 0x0 DUP2 DUP4 PUSH2 0x1A9 SWAP2 SWAP1 PUSH2 0x29F JUMP JUMPDEST SWAP1 POP DUP1 SWAP4 POP POP POP POP SWAP1 JUMP JUMPDEST PUSH1 0x0 DUP2 CALLDATALOAD SWAP1 POP PUSH2 0x1C3 DUP2 PUSH2 0x3F9 JUMP JUMPDEST SWAP3 SWAP2 POP POP JUMP JUMPDEST PUSH1 0x0 DUP2 CALLDATALOAD SWAP1 POP PUSH2 0x1D8 DUP2 PUSH2 0x410 JUMP JUMPDEST SWAP3 SWAP2 POP POP JUMP JUMPDEST PUSH1 0x0 PUSH1 0x20 DUP3 DUP5 SUB SLT ISZERO PUSH2 0x1F4 JUMPI PUSH2 0x1F3 PUSH2 0x3F4 JUMP JUMPDEST JUMPDEST PUSH1 0x0 PUSH2 0x202 DUP5 DUP3 DUP6 ADD PUSH2 0x1B4 JUMP JUMPDEST SWAP2 POP POP SWAP3 SWAP2 POP POP JUMP JUMPDEST PUSH1 0x0 DUP1 PUSH1 0x40 DUP4 DUP6 SUB SLT ISZERO PUSH2 0x222 JUMPI PUSH2 0x221 PUSH2 0x3F4 JUMP JUMPDEST JUMPDEST PUSH1 0x0 PUSH2 0x230 DUP6 DUP3 DUP7 ADD PUSH2 0x1C9 JUMP JUMPDEST SWAP3 POP POP PUSH1 0x20 PUSH2 0x241 DUP6 DUP3 DUP7 ADD PUSH2 0x1C9 JUMP JUMPDEST SWAP2 POP POP SWAP3 POP SWAP3 SWAP1 POP JUMP JUMPDEST PUSH2 0x254 DUP2 PUSH2 0x380 JUMP JUMPDEST DUP3 MSTORE POP POP JUMP JUMPDEST PUSH2 0x263 DUP2 PUSH2 0x38C JUMP JUMPDEST DUP3 MSTORE POP POP JUMP JUMPDEST PUSH1 0x0 PUSH1 0x20 DUP3 ADD SWAP1 POP PUSH2 0x27E PUSH1 0x0 DUP4 ADD DUP5 PUSH2 0x24B JUMP JUMPDEST SWAP3 SWAP2 POP POP JUMP JUMPDEST PUSH1 0x0 PUSH1 0x20 DUP3 ADD SWAP1 POP PUSH2 0x299 PUSH1 0x0 DUP4 ADD DUP5 PUSH2 0x25A JUMP JUMPDEST SWAP3 SWAP2 POP POP JUMP JUMPDEST PUSH1 0x0 PUSH2 0x2AA DUP3 PUSH2 0x38C JUMP JUMPDEST SWAP2 POP PUSH2 0x2B5 DUP4 PUSH2 0x38C JUMP JUMPDEST SWAP3 POP DUP3 PUSH32 0xFFFFFFFFFFFFFFFFFFFFFFFFFFFFFFFFFFFFFFFFFFFFFFFFFFFFFFFFFFFFFFFF SUB DUP3 GT ISZERO PUSH2 0x2EA JUMPI PUSH2 0x2E9 PUSH2 0x396 JUMP JUMPDEST JUMPDEST DUP3 DUP3 ADD SWAP1 POP SWAP3 SWAP2 POP POP JUMP JUMPDEST PUSH1 0x0 PUSH2 0x300 DUP3 PUSH2 0x38C JUMP JUMPDEST SWAP2 POP PUSH2 0x30B DUP4 PUSH2 0x38C JUMP JUMPDEST SWAP3 POP DUP3 PUSH2 0x31B JUMPI PUSH2 0x31A PUSH2 0x3C5 JUMP JUMPDEST JUMPDEST DUP3 DUP3 DIV SWAP1 POP SWAP3 SWAP2 POP POP JUMP JUMPDEST PUSH1 0x0 PUSH2 0x331 DUP3 PUSH2 0x38C JUMP JUMPDEST SWAP2 POP PUSH2 0x33C DUP4 PUSH2 0x38C JUMP JUMPDEST SWAP3 POP DUP2 PUSH32 0xFFFFFFFFFFFFFFFFFFFFFFFFFFFFFFFFFFFFFFFFFFFFFFFFFFFFFFFFFFFFFFFF DIV DUP4 GT DUP3 ISZERO ISZERO AND ISZERO PUSH2 0x375 JUMPI PUSH2 0x374 PUSH2 0x396 JUMP JUMPDEST JUMPDEST DUP3 DUP3 MUL SWAP1 POP SWAP3 SWAP2 POP POP JUMP JUMPDEST PUSH1 0x0 DUP2 ISZERO ISZERO SWAP1 POP SWAP2 SWAP1 POP JUMP JUMPDEST PUSH1 0x0 DUP2 SWAP1 POP SWAP2 SWAP1 POP JUMP JUMPDEST PUSH32 0x4E487B7100000000000000000000000000000000000000000000000000000000 PUSH1 0x0 MSTORE PUSH1 0x11 PUSH1 0x4 MSTORE PUSH1 0x24 PUSH1 0x0 REVERT JUMPDEST PUSH32 0x4E487B7100000000000000000000000000000000000000000000000000000000 PUSH1 0x0 MSTORE PUSH1 0x12 PUSH1 0x4 MSTORE PUSH1 0x24 PUSH1 0x0 REVERT JUMPDEST PUSH1 0x0 DUP1 REVERT JUMPDEST PUSH2 0x402 DUP2 PUSH2 0x380 JUMP JUMPDEST DUP2 EQ PUSH2 0x40D JUMPI PUSH1 0x0 DUP1 REVERT JUMPDEST POP JUMP JUMPDEST PUSH2 0x419 DUP2 PUSH2 0x38C JUMP JUMPDEST DUP2 EQ PUSH2 0x424 JUMPI PUSH1 0x0 DUP1 REVERT JUMPDEST POP JUMP INVALID LOG2 PUSH5 0x6970667358 0x22 SLT KECCAK256 0xA6 SLT PUSH4 0x6970F5AF DUP3 PUSH13 0xFC97D4EA1F7612FFB54132D63C DUP11 0x4B SHR EXP CALLER 0xE8 0xE1 CALL JUMPI CALLDATACOPY PUSH5 0x736F6C6343 STOP ADDMOD SMOD STOP CALLER "
		},
		"gasEstimates": {
			"creation": {
				"codeDepositCost": "223400",
				"executionCost": "263",
				"totalCost": "223663"
			},
			"external": {
				"addNewValues()": "infinite",
				"addfValues()": "infinite",
				"divideCalculatorByFour(uint256,uint256)": "infinite",
				"multiplyCalculatorByFour(uint256,uint256)": "infinite",
				"remoteControlOpen(bool)": "infinite"
			}
		},
		"methodIdentifiers": {
			"addNewValues()": "e581bdca",
			"addfValues()": "73088183",
			"divideCalculatorByFour(uint256,uint256)": "e500ba43",
			"multiplyCalculatorByFour(uint256,uint256)": "80f7a018",
			"remoteControlOpen(bool)": "273d1a3e"
		}
	},
	"abi": [
		{
			"inputs": [],
			"name": "addNewValues",
			"outputs": [
				{
					"internalType": "uint256",
					"name": "",
					"type": "uint256"
				}
			],
			"stateMutability": "view",
			"type": "function"
		},
		{
			"inputs": [],
			"name": "addfValues",
			"outputs": [
				{
					"internalType": "uint256",
					"name": "",
					"type": "uint256"
				}
			],
			"stateMutability": "view",
			"type": "function"
		},
		{
			"inputs": [
				{
					"internalType": "uint256",
					"name": "a",
					"type": "uint256"
				},
				{
					"internalType": "uint256",
					"name": "b",
					"type": "uint256"
				}
			],
			"name": "divideCalculatorByFour",
			"outputs": [
				{
					"internalType": "uint256",
					"name": "",
					"type": "uint256"
				}
			],
			"stateMutability": "view",
			"type": "function"
		},
		{
			"inputs": [
				{
					"internalType": "uint256",
					"name": "a",
					"type": "uint256"
				},
				{
					"internalType": "uint256",
					"name": "b",
					"type": "uint256"
				}
			],
			"name": "multiplyCalculatorByFour",
			"outputs": [
				{
					"internalType": "uint256",
					"name": "",
					"type": "uint256"
				}
			],
			"stateMutability": "view",
			"type": "function"
		},
		{
			"inputs": [
				{
					"internalType": "bool",
					"name": "openDoor",
					"type": "bool"
				}
			],
			"name": "remoteControlOpen",
			"outputs": [
				{
					"internalType": "bool",
					"name": "",
					"type": "bool"
				}
			],
			"stateMutability": "view",
			"type": "function"
		}
	]
}